:060000000A128A11122809
:10000800FE00030EF2000408F3000A08F40083124D
:1000180003137F08F5000A128A11A4290A128A110B
:100028001528F601F701F801AD01AE01AF01B001E5
:10003800B101B2010A128A1163220A128A11B300AD
:100048000A128A1164220A128A11B4000A128A1149
:1000580061220A128A11F9000A128A116222FA0030
:1000680083010A128A11382883120313A901A701F0
:10007800AC01A801AA01AB01F330A400240883163F
:1000880003138705303083120313A4002408831652
:1000980003138604F33083120313A4002408831681
:1000A800031386058312031305140A128A115B22AF
:1000B8000A128A110A128A1143220A128A110A1292
:1000C8008A1110220A128A11831203130715F330BA
:1000D800A400240886056430831203132806031934
:1000E8001F197F280A128A1130220A128A118312D4
:1000F8000313A80183280130A4002408A8070608D0
:100108003039A4002408A90029081039A4002408BB
:10011800A70029082039A4002408AC003208031DD0
:10012800AF282C08031905293008803AFF008030D1
:100138007F02031DA12801302F0203180529013071
:1001480083120313A4002408B2000A128A113A2267
:100158000A128A1150293203031DEB282C08031DAB
:10016800C028AF01B0010A128A1154220A128A115A
:1001780083120313B20150292C08031950290330A4
:1001880084000A128A111C220A128A11A4000A1277
:100198008A111C220A128A11A5003008803AA6008A
:1001A8002508803A2602031DDB2824082F02031C99
:1001B80050290A128A1154220A128A11831203132F
:1001C800AF01B0010230A4002408B2000E290230A9
:1001D8003206031D44292C08031D02292F08300468
:1001E800031D02290A128A113A220A128A110130C1
:1001F80083120313AF000030B00050292C080319F4
:1002080013290A128A1154220A128A11831203131B
:10021800AF01B001F730A4002408870550292C0845
:10022800031D5029013084000A128A111C220A1267
:100238008A11A4000A128A111C220A128A11A50026
:100248002508803AA6003008803A2602031D2E2988
:100258002F08240203185029033083120313A40023
:100268002408B2000130A4002408B1000A128A113F
:1002780054220A128A1183120313AF01B0015029C4
:1002880003303206031D50290430A4002408B200AC
:100298000130A4002408B10783120313310803199D
:1002A8006F282D082E04031D6929861587150A1243
:1002B8008A1130220A128A110A128A1126220A1277
:1002C8008A1101308312031384293408803AA40068
:1002D8002E08803A2402031D73292D0833020318BF
:1002E8006F280C3083120313A400240886040A1212
:1002F8008A114C220A128A118312031387150130BE
:10030800AD000030AE006F28043083120313A40040
:1003180024088706AA01AB012B08803AFF00A73002
:100328007F02031D992910302A02031888290130F9
:1003380083120313AA070318AB0A0030AB079029EE
:100348000B198B1EAF290130F6070318F70A003086
:10035800F70787150B11831603130C1CD02983127A
:1003680003130C1CD0290830F000700887060230EF
:100378003106031DC5290130AD070318AE0A003048
:10038800AE0703303106031DCF290230AD0703182D
:10039800AE0A0030AE070C1083128C1CE4298316B9
:1003A80003138C1CE429013083120313AF070318CD
:1003B800B00A0030B0070830F000700887068C10CB
:1003C80083120C1F042A831603130C1F042A83129A
:1003D80003131E08FA00831603131E08F9007A088F
:1003E800F1007908F000710DF10CF00C710DF10CB1
:1003F800F00C700883120313B3007108B4000C13D7
:1004080075088312FF0074088A0073088400720E4E
:100418008300FE0E7E0E09003F30831203139F05F2
:10042800C7309F05831603139F17F0309F050800F8
:1004380002308A000408840A820700343234003407
:1004480032340034831203139015101483160313E7
:100458000C148B170B170800831203131F141F1596
:10046800831603130C178B170B1708008316031337
:100478008C148312031312158B170B1708008312A1
:1004880003131208FC3902389200783092040800ED
:100498008312031310109011831603130C10080015
:1004A800831203131211831603138C1008003030C3
:1004B80083120313900490100800643400346434E9
:0204C8000034FE
:02400E007AFF37
:00000001FF
