:060000000A128A11122809
:10000800FE00030EF2000408F3000A08F40083124D
:1000180003137F08F5000A128A1187290A128A1128
:100028001528F601F701F801F901FA01AC01AD0153
:10003800AE01AF01B001B1010A128A1139220A12C8
:100048008A11B2000A128A113A22B30083010A12F5
:100058008A112E2883120313A801A701AB01A90155
:10006800AA01F330A400240883160313870530304F
:1000780083120313A4002408831603138604F330A1
:1000880083120313A400240883160313860583121E
:10009800031305140A128A1133220A128A110A124A
:1000A8008A111B220A128A110A128A11E8210A12DD
:1000B8008A11831203130715F330A4002408860558
:1000C8008312031306083039A4002408A80028085E
:1000D8001039A4002408A70028082039A4002408FF
:1000E800AB003108031D92282B080319E8282F08B4
:1000F800803AFF0080307F02031D842801302E02E1
:100108000318E828013083120313A4002408B1005F
:100118000A128A1112220A128A1133293103031D85
:10012800CE282B08031DA328AE01AF010A128A119D
:100138002C220A128A1183120313B10133292B08C6
:1001480003193329033084000A128A11F4210A1290
:100158008A11A4000A128A11F4210A128A11A50030
:100168002F08803AA6002508803A2602031DBE28DB
:1001780024082E02031C33290A128A112C220A127F
:100188008A1183120313AE01AF010230A4002408C0
:10019800B100332902303106031D27292B08031D1E
:1001A800E5282E082F04031DE5280A128A111222B9
:1001B8000A128A11013083120313AE000030AF0017
:1001C80033292B080319F6280A128A112C220A123D
:1001D8008A1183120313AE01AF01F730A40024087B
:1001E800870533292B08031D3329013084000A129F
:1001F8008A11F4210A128A11A4000A128A11F42120
:100208000A128A11A5002508803AA6002F08803A0C
:100218002602031D11292E0824020318332903304E
:1002280083120313A4002408B1000130A400240899
:10023800B0000A128A112C220A128A11831203139F
:10024800AE01AF01332903303106031D33290430D1
:10025800A4002408B1000130A4002408B0078312C8
:1002680003133008031964282C082D04031D4C2996
:10027800861587150A128A1108220A128A110A128B
:100288008A11FE210A128A11013083120313672989
:100298002D08803AA4003308803A2402031D562909
:1002A80032082C02031C64280C3083120313A400A8
:1002B800240886040A128A1124220A128A11831237
:1002C800031387150130AC000030AD0064280430FA
:1002D80083120313A40024088706A901AA012A0887
:1002E800803AFF00A7307F02031D7C2910302902C5
:1002F80003186B29013083120313A9070318AA0AEC
:100308000030AA077329831603130C1CA82983122B
:1003180003130C1CA8290830F00070088706023067
:100328003006031D9D290130AC070318AD0A0030C3
:10033800AD0703303006031DA7290230AC070318A8
:10034800AD0A0030AD070C1083128C1CBC29831633
:1003580003138C1CBC29013083120313AE07031846
:10036800AF0A0030AF070830F000700887068C101D
:1003780083120C1FDC29831603130C1FDC2983123C
:1003880003131E08F700831603131E08F6007708E8
:10039800F1007608F000710DF10CF00C710DF10C04
:1003A800F00C700883120313B2007108B3000C1329
:1003B80075088312FF0074088A0073088400720E9F
:1003C8008300FE0E7E0E09003F30831203139F0543
:1003D800C7309F05831603139F17F0309F05080049
:1003E80001308A000408840A820700343234003459
:1003F8003234003483120313901510148316031338
:100408000C148B170B170800831203131F141F15E6
:10041800831603130C178B170B1708008316031387
:100428008C148312031312158B170B1708008312F1
:1004380003131208FC39023892007830920408003D
:100448008312031310109011831603130C10080065
:10045800831203131211831603138C100800303013
:0E0468008312031390049010080064340034D3
:02400E007AFF37
:00000001FF
