:060000000A128A11122809
:10000800FE00030EF8000408F9000A08FA0083123B
:1000180003137F08FB000A128A11DE290A128A11CB
:100028001528FC0183132030840031300A128A110C
:10003800102483010A128A110C2983120313B600B3
:10004800F4283608023E840083130003031D332876
:100058000130B100360884003108800008003608F5
:10006800033E84008001840A800108003608023EAD
:1000780084000008031D4A283608033E84008001D6
:10008800840A800136088400800108003608023E90
:1000980084000003031D0800013084000A128A113D
:1000A800D7230A128A11B1000A128A11D7230A1219
:1000B8008A11B2003608033E84000008B300840A9F
:1000C8000008B4003408803AB5003208803A350296
:1000D800031D702831083302031C08008312031320
:1000E8003608033E840083138001840A80010230AD
:1000F800B100360884003108800008003608023E46
:1001080084000008031D9B283608033E840000086D
:10011800B100840A0008B20031083204031D9B288C
:100128000330B10036088400310880000800360822
:10013800033E84008001840A800108003608023EDC
:1001480084000003031DB5283608033E840080019F
:10015800840A80010230B10036088400310880002A
:1001680008003608023E84000008031D080036080F
:10017800033E84000008B100840A0008B20003307E
:1001880084000A128A11D7230A128A11B3000A12AC
:100198008A11D7230A128A11B4003408803AB500AC
:1001A8003208803A3502031DDB2831083302031870
:1001B8000800831203133608033E8400831380016A
:1001C800840A80010430B1003608840031088000B8
:1001D80008000530B10036088400310880000800A6
:1001E8003608840083130008003A03192528013AC9
:1001F80003193A28033A03198228013A0319A22855
:10020800073A0319ED28013A03190B290B290800AD
:1002180083120313BE0183160313051483120313F9
:10022800BE013030B9003908831603138604F33051
:1002380083120313B9003908831603138705F330B3
:1002480083120313B9003908831603138605243073
:100258000A128A118A230A128A1129300A128A116B
:100268008A230A128A110A128A1107240A128A1189
:100278000A128A1128240A128A110A128A11FE23E4
:100288000A128A110A128A11CB230A128A118312BE
:1002980003130715F330B900390886050A128A11C5
:1002A8002E240A128A110A128A11F5230A128A11B7
:1002B8008312031306081039B9003908A500060887
:1002C8002039B9003908AA00BE0102303E020318DD
:1002D800AF290530B9003908B1003E080A128A1161
:1002E800B8230A128A11243E0A128A11A2230A127A
:1002F8008A11053083120313B9003908B1003E088A
:100308000A128A11B8230A128A11243E0A128A1183
:1003180021200A128A112E3083120313B9003908DA
:10032800B5000530BA003A08B1003E080A128A1131
:10033800B8230A128A11243E0A128A1160230A126B
:100348008A11013083120313B9003908BE0702303D
:100358003E02031C6D292930B9003908B1002E303E
:10036800BA003A08B2007C30BB003B08B300243026
:100378000A128A11DD220A128A115C2904308312BA
:100388000313B90039088706BC01BD013D08803A4E
:10039800FF00A7307F02031DD32910303C02031849
:1003A800C229013083120313BC070318BD0A0030A9
:1003B800BD07CA290B1D2E2A8B1A042A2E2A05309E
:1003C800E6290F30F0000030F1002308F30022087E
:1003D800F2000A128A1192220A128A117008710414
:1003E800031D122A0830F7007708831203138706C3
:1003F800122A8715122AF730F70077088705122A7C
:100408007C08003A0319FF29023A0319E329013A43
:100418000319E529073A0319FD29FF290130831239
:100428000313A2070318A30A0030A307E830F0005B
:100438000330F1002308F3002208F2000A128A119F
:1004480092220A128A11710883120313A3007008FA
:10045800A2000B11831603130C1C542A83120313D6
:100468000C18442A542A01303A2A0330F700770836
:10047800AF07512A0A128A1120240A128A11512A16
:10048800831203132E08013A0319372A033A031972
:10049800392A013A03193E2A3E2A831203130C1003
:1004A80083128C1C782A831603138C1C782A8312D7
:1004B800031324030319642A03302406031D6A2A3C
:1004C8000130A7070318A80A0030A8072903031951
:1004D800712A03302906031D772A0130AC07031857
:1004E800AD0A0030AD078C1083120C1F862A8316C4
:1004F80003130C1F862A831203131E08F7007708BC
:10050800B0000C137B088312FF007A088A00790870
:100518008400780E8300FE0E7E0E0900F601F31F9C
:100528009C2AF209F309F20A0319F30AF601F60AFA
:10053800F11FA32AF009F109F00A0319F10A70085A
:1005480071040319D02AF501F50AF11BB72A013005
:100558000310F00DF10DFF3E031DAC2A0130F4002D
:100568007408F507A92A71087302031DBD2A7008CB
:100578007202031CC52A7008F2027108031CF303F7
:10058800F30201300310F10CF00CFF3E031DC62AE4
:100598000130F502031DB72A76080319D82AF20993
:1005A800F309F20A0319F30A7308F1007208F0005C
:1005B800080083120313B500350884008313000371
:1005C8000319F72A35088400033000060319F72AAF
:1005D8003108840000030319F72A31088400033026
:1005E8000006031DFE2A0230B400330884003408D4
:1005F800800008003208840000030319092B320820
:10060800840002300006031D102B0330B4003308A9
:100618008400340880000800320884000330000693
:10062800031D1D2B0430B4003308840034088000F7
:100638000800330884008001080083120313B20005
:100648003E2B0A128A11EB230A128A110A128A1106
:10065800E1230A128A1183120313320A84008313D6
:1006680080010130382B0230B10032088400310893
:1006780080004C2B3208840083130008003A0319C9
:10068800252B013A0319372B033A0319372B372B3C
:10069800320884000008031D08000A128A11EB239F
:1006A8000A128A110A128A11E12383120313320AE9
:1006B800840083138001080083120313B8003808EC
:1006C8008400043083130006031D702B35080A12BA
:1006D8008A1121230A128A1183120313350A84000E
:1006E80083130008B6003508023E84000008B700EE
:1006F80036083702031808000330B60035088400AE
:10070800360880000A128A1118240800831203137D
:10071800B2003208033E840083138001840A8001FA
:10072800320884008001320A840080010130B1005F
:100738003208023E84003108800008008312031347
:10074800B200320A8400831300080319B32B013066
:10075800B1003208023E84003108800008003208E7
:10076800023E84008001080083120313B400B30121
:10077800341CC22B3108B2003208B3070310B10D84
:100788000310B40C3408031DBC2B330808003F3099
:10079800831203139F05C7309F05831603139F1306
:1007A800F0309F05080003308A000408840A820795
:1007B8000034323400343234003483120313901579
:1007C8001014831603130C148B170B1708008312CD
:1007D80003131F141F15831603130C178B170B17FE
:1007E8000800831603138C148312031312158B1736
:1007F8000B170800831203131208FC390238920001
:1008080078309204080083160313811281110108BD
:10081800F83904388100080064008001840A04065D
:10082800031900340406112C8312031310109011BD
:10083800831603130C100800831203131010901171
:10084800831603130C10080030308312031390042E
:0C085800901008008B168B170B1708007F
:02400E007AFF37
:00000001FF
