:060000000A128A11122809
:10000800FE00030EF9000408FA000A08FB00831238
:1000180003137F08FC000A128A111B2A0A128A118C
:100028001528FD0183133330840044300A128A11E5
:1000380084230A128A110A128A119A230A128A112F
:10004800C4000A128A119B230A128A11C5000A12D7
:100058008A119C230A128A11C6000A128A119D234A
:10006800C70083010A128A11392883120313AA01CF
:1000780006083039A5002508AA002A081039A50065
:100088002508AC002A082039A5002508B0008316E9
:1000980003130514303083120313A50025088316B3
:1000A80003138604F33083120313A500250883166F
:1000B80003138705F33083120313A500250883165D
:1000C800031386050A128A117B230A128A110A125F
:1000D8008A1194230A128A110A128A1172230A12A7
:1000E8008A110A128A113F230A128A1183120313F2
:1000F8000715F330A500250886050A128A119E23E4
:100108000A128A110A128A1169230A128A11042909
:10011800831203132C080319C7280130F3282C086D
:10012800031D9A28BF01C001AB019D292C080319A2
:100138009D29033084000A128A114B230A128A115E
:10014800A5000A128A114B230A128A11A600400838
:10015800803AA7002608803A2702031DB5282508FB
:100168003F02031C9D2983120313CD282C08031D6D
:10017800C7283F084004031DC7280130BF000030CE
:10018800C0000330F328BF01C0019D292C080319C2
:10019800D128BF01C0010230F3282C08031D9D2976
:1001A800013084000A128A114B230A128A11A50011
:1001B8000A128A114B230A128A11A6002608803ACD
:1001C800A7004008803A2702031DEC283F082502B3
:1001D80003189D2983120313BF01C0010430A50031
:1001E8002508AB009D290530A5002508AB00043083
:1001F800A5002508C3000130A5002508FD079D2995
:10020800831203132B08003A03198C28013A0319A7
:100218009328033A0319BA28013A0319CA28073A56
:100228000319F7289D299D292F0803192029013032
:10023800A5002508AF002229C101C2012F08031D0E
:100248002929C101C201AF014E292F0803194E29DE
:10025800033084000A128A114B230A128A11A5005E
:100268000A128A114B230A128A11A6004208803A00
:10027800A7002608803A2702031D442925084102C1
:10028800031C4E2983120313C101C2010230A500C9
:100298002508AF00831203132F08031D60294108A6
:1002A8004204031D60290130C1000030C200033040
:1002B800A5002508AF006229C101C2012F08031952
:1002C8006929C101C20102308B292F08031D8E291B
:1002D800013084000A128A114B230A128A11A500E0
:1002E8000A128A114B230A128A11A6002608803A9C
:1002F800A7004208803A2702031D842941082502E5
:1003080003188E2983120313C101C2010430A5000A
:100318002508AF00053083120313A5002508AF0098
:100328000430A5002508C3000130A5002508FD07F5
:10033800B029831203132F08003A03191829013A28
:1003480003192229033A03194E29013A031962298C
:10035800073A03198E29B0297D080319EA293B08B1
:100368003C04031DC92986150A128A115F230A1243
:100378008A110A128A1155230A128A11013083122E
:100388000313BB000030BC00EA294708803AA500E7
:100398003C08803A2502031DD3293B08460203186E
:1003A800EA290C3083120313A500250886040A12D3
:1003B8008A118C230A128A11013083120313BB009D
:1003C8000030BC000330A5002508FD00831203138C
:1003D8002F08A5002508A0007D08A6002608A10072
:1003E8004330A7002708A2002B080A128A110A2303
:1003F8000A128A110429043083120313A500250860
:100408008706A801A9012908803AFF00A7307F02C2
:10041800031D102A103028020318FF290130831207
:100428000313A8070318A90A0030A907072A0B19FC
:100438008B1E572A431C312A0530F0000030F1008A
:100448003E08F3003D08F2000A128A11BF220A1280
:100458008A11700871040319482A0430831203139F
:100468004306031D4E2A1430F0000030F1003E0808
:10047800F3003D08F2000A128A11BF220A128A11FB
:1004880070087104031D4E2A0830F700770883129C
:1004980003138706013083120313BD070318BE0A2E
:1004A8000030BE070B11831603130C1C6F2A83122E
:1004B80003130C1C6F2A7D03031D642A0130692A6B
:1004C80002307D06031D6E2A0330BB070318BC0AE1
:1004D8000030BC070C1083128C1C932A831603135C
:1004E8008C1C932A83120313330303197F2A0330C6
:1004F8003306031D852A0130BF070318C00A0030E0
:10050800C007370303198C2A03303706031D922AC4
:100518000130C1070318C20A0030C2078C108312C9
:100528000C1FB32A831603130C1FB32A8312031359
:100538001E08C500831603131E0883120313C40084
:100548004508F8004408F700780DF80CF70C780D0A
:10055800F80CF70C7708C6007808C7000C137C085D
:100568008312FF007B088A007A088400790E8300D2
:10057800FE0E7E0E0900F601F31FC92AF209F309DF
:10058800F20A0319F30AF601F60AF11FD02AF00954
:10059800F109F00A0319F10A700871040319FD2A18
:1005A800F501F50AF11BE42A01300310F00DF10DF5
:1005B800FF3E031DD92A0130F4007408F507D62A36
:1005C80071087302031DEA2A70087202031CF22ADA
:1005D8007008F2027108031CF303F30201300310E0
:1005E800F10CF00CFF3E031DF32A0130F502031D48
:1005F800E42A76080319052BF209F309F20A03190C
:10060800F30A7308F1007208F0000800831203135C
:10061800A400240303191B2B0330240603191B2BE6
:10062800200303191B2B03302006031D202B22084F
:100638008400831300140800210803192C2B0330AD
:10064800210203182C2B22088400831300150800AC
:1006580003302102031C362B2208840083138015E3
:10066800871508002208840083138001F730A3004F
:100678002308870508003F30831203139F05C730FE
:100688009F05831603139F17F0309F05080003305A
:100698008A000408840A8207003432340034323471
:1006A80000348312031390151014831603130C14CB
:1006B8008B170B170800831203131F141F158316BB
:1006C80003130C178B170B170800831603138C14CE
:1006D8008312031312158B170B17080083120313C9
:1006E8001208FC3902389200783092040800831608
:1006F8000313811281110108F839043881000800B8
:1007080064008001840A0406031900340406852B5A
:100718008312031310109011831603130C10080092
:1007280030308312031390049010080064340034AE
:0C073800643400348B168B170B1708007C
:02400E007AFF37
:00000001FF
