:060000000A128A11122809
:10000800FE00030EF9000408FA000A08FB00831238
:1000180003137F08FC000A128A11152A0A128A1192
:100028001528FD01AE01AF01B001B101B201B30164
:10003800B401B501B601B701B8010A128A119123BA
:100048000A128A11B9000A128A1192230A128A1115
:10005800BA000A128A1193230A128A11BB000A12E3
:100068008A119423BC0083010A128A113B28831247
:100078000313AB01AC01AD01A801A901AA018316C4
:1000880003130514303083120313A50025088316C3
:1000980003138604F33083120313A500250883167F
:1000A80003138705F33083120313A500250883166D
:1000B800031386050A128A117A230A128A110A1270
:1000C8008A118B230A128A110A128A1171230A12C1
:1000D8008A110A128A113E230A128A118312031303
:1000E8000715F330A500250886050A128A119523FD
:1000F8000A128A110A128A1168230A128A11013017
:1001080083120313A5002508A80706083039A5009F
:100118002508AB002B081039A5002508AC002B08D2
:100128002039A5002508AD007D08031DA3282C084B
:100138000319A02801300B29B201B3011F297D033F
:10014800031DCD282C08031DAD28B201B301FD0104
:100158001F292C0803191F29033084000A128A1149
:100168004A230A128A11A5000A128A114A230A127E
:100178008A11A6003308803AA7002608803A270289
:10018800031DC82825083202031C1F2983120313E4
:10019800E52802307D06031DDE282C08031D1F29D3
:1001A80032083304031D1F290130B2000030B300A8
:1001B80003300B2903307D06031D0F292C08031972
:1001C800E928B201B30102300B292C08031D1F29AD
:1001D800013084000A128A114A230A128A11A500E2
:1001E8000A128A114A230A128A11A6002608803A9E
:1001F800A7003308803A2702031D04293208250284
:1002080003181F2983120313B201B3010430A50098
:100218002508FD001F2904307D06031D1F29053010
:10022800A5002508FD000430A5002508B800013008
:10023800A5002508B607831203133708031D2929CB
:100248002D0803196429013094293703031D532904
:100258002D08031D3329B401B501B701A8292D08BC
:100268000319A829033084000A128A114A230A12A2
:100278008A11A5000A128A114A230A128A11A600B5
:100288003508803AA7002608803A2702031D4E2920
:1002980025083402031CA829831203136E2902308F
:1002A8003706031D67292D08031D64293408350402
:1002B800031D64290130B4000030B50003309429CF
:1002C800B401B501A82903303706031D98292D0864
:1002D80003197229B401B501023094292D08031DB0
:1002E800A829013084000A128A114A230A128A11A5
:1002F800A5000A128A114A230A128A11A6002608A2
:10030800803AA7003508803A2702031D8D29340852
:1003180025020318A82983120313B401B501043078
:10032800A5002508B700A82904303706031DA82909
:100338000530A5002508B7000430A5002508B80039
:100348000130A5002508B6078312031336080319E0
:10035800E4292E082F04031DC32986150A128A11C1
:100368005E230A128A110A128A1154230A128A1168
:10037800013083120313AE000030AF00E4293C08BB
:10038800803AA5002F08803A2502031DCD292E08A2
:100398003B020318E4290C3083120313A500250837
:1003A80086040A128A1183230A128A1101308312E1
:1003B8000313AE000030AF000330A5002508B600D7
:1003C800831203133708A5002508A0003608A600E5
:1003D8002608A1003830A7002708A2007D080A12C5
:1003E8008A1109230A128A118328043083120313FD
:1003F800A50025088706A901AA012A08803AFF0056
:10040800A7307F02031D0A2A103029020318F92990
:10041800013083120313A9070318AA0A0030AA0798
:10042800012A0B198B1E512A381C2B2A0530F00083
:100438000030F1003108F3003008F2000A128A1186
:10044800BE220A128A11700871040319422A043064
:10045800831203133806031D482A1430F0000030B5
:10046800F1003108F3003008F2000A128A11BE22A6
:100478000A128A1170087104031D482A0830F7000F
:100488007708831203138706013083120313B0071A
:100498000318B10A0030B1070B11831603130C1CA3
:1004A8006D2A831203130C1C6D2A3603031D622A5E
:1004B8000130AE070318AF0A0030AF070230360626
:1004C800031D6C2A0330AE070318AF0A0030AF07CC
:1004D8000C1083128C1C922A831603138C1C922AEC
:1004E8007D0303197B2A03307D06031D832A01300F
:1004F80083120313B2070318B30A0030B307831239
:10050800370303198B2A03303706031D912A01305C
:10051800B4070318B50A0030B5078C1083120C1FF6
:10052800B22A831603130C1FB22A831203131E0860
:10053800BA00831603131E0883120313B9003A087E
:10054800F8003908F700780DF80CF70C780DF80C5E
:10055800F70C7708BB007808BC000C137C088312E2
:10056800FF007B088A007A088400790E8300FE0E5B
:100578007E0E0900F601F31FC82AF209F309F20AF0
:100588000319F30AF601F60AF11FCF2AF009F10957
:10059800F00A0319F10A700871040319FC2AF5011D
:1005A800F50AF11BE32A01300310F00DF10DFF3EAF
:1005B800031DD82A0130F4007408F507D52A7108FC
:1005C8007302031DE92A70087202031CF12A7008DD
:1005D800F2027108031CF303F30201300310F10C5B
:1005E800F00CFF3E031DF22A0130F502031DE32A39
:1005F80076080319042BF209F309F20A0319F30A1E
:100608007308F1007208F000080083120313A400B5
:10061800240303191A2B0330240603191A2B200369
:1006280003191A2B03302006031D1F2B22088400F0
:10063800831300140800210803192B2B033021020F
:1006480003182B2B2208840083130015080003309D
:100658002102031C352B220884008313801587157B
:1006680008002208840083138001F730A3002308C0
:10067800870508003F30831203139F05C7309F0585
:10068800831603139F17F0309F05080003308A0074
:100698000408840A820700343234003432340034C7
:1006A8008312031390151014831603130C148B175D
:1006B8000B170800831203131F141F158316031347
:1006C8000C178B170B170800831603138C1483124F
:1006D800031312158B170B17080083120313120844
:1006E800FC3902389200783092040800831603130C
:1006F800811281110108F839043881000800831239
:10070800031310109011831603130C1008003030D7
:100718008312031390049010080064340034643486
:0A07280000348B168B170B17080026
:02400E007AFF37
:00000001FF
