:060000000A128A11122809
:10000800FE00030EFA000408FB000A08FC00831235
:1000180003137F08FD000A128A11DD290A128A11CA
:10002800152883132030840032300A128A112124C3
:1000380083010A128A110B2983120313B700F328CC
:100048003708023E840083130003031D3228013061
:10005800B200370884003208800008003708033EE1
:1000680084008001840A800108003708023E840069
:100078000008031D49283708033E84008001840ACC
:10008800800137088400800108003708023E840098
:100098000003031D0800013084000A128A11E823B6
:1000A8000A128A11B2000A128A11E8230A128A1166
:1000B800B3003708033E84000008B400840A00082F
:1000C800B5003508803AB6003308803A3602031D79
:1000D8006F2832083402031C080083120313370800
:1000E800033E840083138001840A80010230B20039
:1000F800370884003208800008003708023E840070
:100108000008031D9A283708033E84000008B2003F
:10011800840A0008B30032083304031D9A28033008
:10012800B200370884003208800008003708033E10
:1001380084008001840A800108003708023E840098
:100148000003031DB4283708033E84008001840A95
:1001580080010230B20037088400320880000800AD
:100168003708023E84000008031D08003708033ED4
:1001780084000008B200840A0008B3000330840039
:100188000A128A11E8230A128A11B4000A128A1183
:10019800E8230A128A11B5003508803AB6003308F8
:1001A800803A3602031DDA283208340203180800A0
:1001B800831203133708033E840083138001840AE3
:1001C80080010430B200370884003208800008003B
:1001D8000530B2003708840032088000080037086C
:1001E800840083130008003A03192428013A0319EC
:1001F8003928033A03198128013A0319A128073A33
:100208000319EC28013A03190A290A29080083125C
:100218000313BF0183160313051483120313BF01CD
:100228003030BA003A08831603138604F330831279
:100238000313BA003A08831603138705F3308312B1
:100248000313BA003A0883160313860524300A12EA
:100258008A119B230A128A1129300A128A119B23B8
:100268000A128A110A128A1118240A128A110A1209
:100278008A1139240A128A110A128A110F240A12C1
:100288008A110A128A11DC230A128A1183120313B3
:100298000715F330BA003A0886050A128A113F2476
:1002A8000A128A110A128A1106240A128A11831262
:1002B800031306081039BA003A08A50006082039C1
:1002C800BA003A08AA00BF0102303F020318AE295B
:1002D8000530BA003A08B2003F080A128A11C92349
:1002E8000A128A11243E0A128A11B3230A128A11A9
:1002F800053083120313BA003A08B2003F080A1205
:100308008A11C9230A128A11243E0A128A1120204E
:100318000A128A112E3083120313BA003A08B60063
:100328000530BB003B08B2003F080A128A11C923F6
:100338000A128A11243E0A128A1171230A128A119A
:10034800013083120313BA003A08BF0702303F0294
:10035800031C6C292930BA003A08B2002E30BB00C1
:100368003B08B3003130BC003C08B40024300A120A
:100378008A11EE220A128A115B29043083120313B0
:10038800BA003A088706BD01BE013E08803AFF0060
:10039800A7307F02031DD22910303D020318C1295E
:1003A800013083120313BD070318BE0A0030BE07CD
:1003B800C9290B1D2D2A8B1A032A2D2A0530E52958
:1003C8000F30F0000030F1002308F3002208F2009B
:1003D8000A128A11A3220A128A1170087104031DD5
:1003E800112A0830F7007708831203138706112AA9
:1003F8008715112AF730F70077088705112A310881
:10040800003A0319FE29023A0319E229013A0319AD
:10041800E429073A0319FC29FE2901308312031342
:10042800A2070318A30A0030A307E830F00003303E
:10043800F1002308F3002208F2000A128A11A3220D
:100448000A128A11710883120313A3007008A2000C
:100458000B11831603130C1C532A831203130C1855
:10046800432A532A0130392A0330F7007708AF07A7
:10047800502A0A128A1131240A128A11502A831228
:1004880003132E08013A0319362A033A0319382AA6
:10049800013A03193D2A3D2A831203130C108312D3
:1004A8008C1C772A831603138C1C772A8312031358
:1004B80024030319632A03302406031D692A013023
:1004C800A7070318A80A0030A80729030319702AE8
:1004D80003302906031D762A0130AC070318AD0A3C
:1004E8000030AD078C1083120C1F972A8316031354
:1004F8000C1F972A831203131E08A10083160313E7
:100508001E0883120313A0002108F8002008F70032
:10051800780DF80CF70C780DF80CF70C7708F90043
:100528007908B0000C137D088312FF007C088A004C
:100538007B0884007A0E8300FE0E7E0E0900F60109
:10054800F31FAD2AF209F309F20A0319F30AF601B7
:10055800F60AF11FB42AF009F109F00A0319F10AA1
:10056800700871040319E12AF501F50AF11BC82A7C
:1005780001300310F00DF10DFF3E031DBD2A0130BF
:10058800F4007408F507BA2A71087302031DCE2A0D
:1005980070087202031CD62A7008F2027108031C44
:1005A800F303F30201300310F10CF00CFF3E031DBE
:1005B800D72A0130F502031DC82A76080319E92A4B
:1005C800F209F309F20A0319F30A7308F100720831
:1005D800F000080083120313B60036088400831362
:1005E80000030319082B360884000330000603199A
:1005F800082B3208840000030319082B32088400F2
:1006080003300006031D0F2B0230B50034088400A8
:1006180035088000080033088400000303191A2BEA
:100628003308840002300006031D212B0330B50077
:10063800340884003508800008003308840003303B
:100648000006031D2E2B0430B5003408840035083D
:100658008000080034088400800108008312031316
:10066800B3004F2B0A128A11FC230A128A110A12AC
:100678008A11F2230A128A1183120313330A84009F
:10068800831380010130492B0230B2003308840003
:10069800320880005D2B3308840083130008003A79
:1006A8000319362B013A0319482B033A0319482B2F
:1006B800482B330884000008031D08000A128A1119
:1006C800FC230A128A110A128A11F22383120313D5
:1006D800330A840083138001080083120313B900CE
:1006E80039088400043083130006031D812B360863
:1006F8000A128A1132230A128A1183120313360A44
:10070800840083130008B7003608023E84000008FE
:10071800B80037083802031808000330B700360855
:100728008400370880000A128A11292408008312DD
:100738000313B3003308033E840083138001840A43
:100748008001330884008001330A8400800101306D
:10075800B2003308023E8400320880000800831289
:100768000313B300330A8400831300080319C42B4E
:100778000130B2003308023E8400320880000800CD
:100788003308023E84008001080083120313B50079
:10079800B401351CD32B3208B3003308B407031057
:1007A800B20D0310B50C3508031DCD2B3408080015
:1007B8003F30831203139F05C7309F058316031329
:1007C8009F17F0309F05080003308A000408840A48
:1007D8008207003432340034323400348312031375
:1007E80090151014831603130C148B170B1708009D
:1007F800831203131F141F15831603130C178B176B
:100808000B170800831603138C1483120313121595
:100818008B170B170800831203131208FC390238D0
:100828009200783092040800831603138112811114
:100838000108F83904388100080064008001840A3E
:100848000406031900340406222C83120313101023
:100858009011831603130C10080083120313101051
:100868009011831603130C10080030308312031301
:0E0878009004901008008B168B170B170800C9
:02400E007AFF37
:00000001FF
