:060000000A128A11122809
:10000800FE00030EFA000408FB000A08FC00831235
:1000180003137F08FD000A128A1101290A128A11A6
:10002800152883132030840032300A128A11F722EF
:1000380083010A128A11C72983120313B700EC2817
:100048003708023E840083130003031D3228013061
:10005800B200370884003208800008003708033EE1
:1000680084008001840A800108003708023E840069
:100078000008031D49283708033E84008001840ACC
:10008800800137088400800108003708023E840098
:100098000003031D0800013084000A128A11D222CD
:1000A8000A128A11B2000A128A11D2220A128A117D
:1000B800B3003708033E84000008B400840A00082F
:1000C800B5003508803AB6003308803A3602031D79
:1000D8006F2832083402031C080083120313370800
:1000E800033E840083138001840A80010230B20039
:1000F800370884003208800008003708023E840070
:100108000008031D9A283708033E84000008B2003F
:10011800840A0008B30032083304031D9A28033008
:10012800B200370884003208800008003708033E10
:1001380084008001840A800108003708023E840098
:100148000003031DB4283708033E84008001840A95
:1001580080010230B20037088400320880000800AD
:100168003708023E84000008031D08003708033ED4
:1001780084000008B200840A0008B3000330840039
:100188000A128A11D2220A128A11B4000A128A119A
:10019800D2220A128A11B5003508803AB60033080F
:1001A800803A3602031DDA283208340203180800A0
:1001B800831203133708033E840083138001840AE3
:1001C80080010430B200370884003208800008003B
:1001D8003708840083130008003A03192428013AD9
:1001E80003193928033A03198128013A0319A12868
:1001F800073A03190029002908000B1D51298B1AF9
:1002080027295129053009290F30F0000030F10065
:100218002608F3002508F2000A128A114D220A1254
:100228008A1170087104031D35290830F700770812
:10023800831203138706352987153529F730F70008
:100248007708870535292708003A03192229023A31
:1002580003190629013A03190829073A031920291D
:100268002229013083120313A5070318A60A0030B8
:10027800A6076430F0000030F1002608F3002508D6
:10028800F2000A128A114D220A128A117108831289
:100298000313A6007008A5000B11831603130C1C8A
:1002A8007729831203130C186729772901305D29F0
:1002B8000330F7007708A10774290A128A11FF2270
:1002C8000A128A117429831203132008013A0319A8
:1002D8005A29033A03195C29013A03196129742937
:1002E800831203130C1083128C1C9B29831603138F
:1002F8008C1C9B29831203132803031987290330B5
:100308002806031D8D290130AB070318AC0A0030FD
:10031800AC072D030319942903302D06031D9A29D0
:100328000130B0070318B10A0030B1078C108312EE
:100338000C1FBB29831603130C1FBB29831203133D
:100348001E08A400831603131E0883120313A300B8
:100358002408F8002308F700780DF80CF70C780D3E
:10036800F80CF70C7708F9007908A2000C137D083F
:100378008312FF007C088A007B0884007A0E8300C1
:10038800FE0E7E0E09008316031305143030831207
:100398000313B8003808831603138604F330831256
:1003A8000313B8003808831603138705F330831244
:1003B8000313B800380883160313860528300A1279
:1003C8008A1198220A128A112D300A128A1198224B
:1003D8000A128A110A128A11EE220A128A110A12C4
:1003E8008A1107230A128A110A128A11E5220A12AF
:1003F8008A110A128A11C6220A128A118312031359
:100408000715F330B800380886050A128A110D233B
:100418000A128A110A128A11DC220A128A1183121C
:10042800031306081039B8003808A900060820394F
:10043800B8003808AE002D300A128A11B0220A120C
:100448008A112D300A128A1120200A128A110A12E2
:100458008A1111230A128A11132A043083120313F2
:10046800B80038088706B901BA013A08803AFF008F
:10047800A7307F02031D422A103039020318312A9F
:10048800013083120313B9070318BA0A0030BA07F8
:10049800392AF601F31F572AF209F309F20A031958
:1004A800F30AF601F60AF11F5E2AF009F109F00ACB
:1004B8000319F10A7008710403198B2AF501F50A6A
:1004C800F11B722A01300310F00DF10DFF3E031DE0
:1004D800672A0130F4007408F507642A710873026A
:1004E800031D782A70087202031C802A7008F20221
:1004F8007108031CF303F30201300310F10CF00C34
:10050800FF3E031D812A0130F502031D722A760879
:100518000319932AF209F309F20A0319F30A730873
:10052800F1007208F000080083120313B3003308C7
:10053800033E840083138001840A80013308840009
:100548008001330A840080010130B2003308023E82
:10055800840032088000080083120313B300330AB2
:100568008400831300080319C12A0130B20033083C
:10057800023E84003208800008003308023E8400EE
:10058800800108003F30831203139F05C7309F0581
:10059800831603139F17F0309F05080002308A0066
:1005A8000408840A820700343234003432340034B8
:1005B800831603138C148312031312158B170B174E
:1005C8000800831203131208FC39023892007830AD
:1005D8009204080083160313811281110108F83967
:1005E80004388100080064008001840A04060319A5
:1005F80000340406F82A831203131010901183168E
:1006080003130C1008003030831203139004901069
:0C06180008008B168B170B170800080059
:02400E007AFF37
:00000001FF
