:060000000A128A11122809
:10000800FE00030EF8000408F9000A08FA0083123B
:1000180003137F08FB000A128A1197290A128A1112
:100028001528FC01FD01B201B301B401B501B60107
:10003800B701B801B901BA01BB010A128A11092333
:100048000A128A11BC000A128A110A230A128A119A
:10005800BD000A128A110B230A128A11BE000A1265
:100068008A110C23BF0083010A128A113B288312CC
:100078000313B001AC01B101AD01AE01AF018316AC
:1000880003130514303083120313A90029088316BB
:1000980003138604F33083120313A9002908831677
:1000A80003138705F33083120313A9002908831665
:1000B800031386050A128A11EB220A128A110A1200
:1000C8008A1103230A128A110A128A11E2220A12D9
:1000D8008A110A128A11AF220A128A118312031393
:1000E8000715F330A900290886050A128A11D922B2
:1000F8000A128A116430831203132D0203181F1980
:100108008E280A128A11CF220A128A118312031327
:10011800AD0192280130A9002908AD070608303939
:10012800A9002908B00030081039A9002908AC0036
:1001380030082039A9002908B1007D08031DAC2822
:1001480031080319A9280130F028B801B9012A2972
:100158007D03031DD6283108031DB628B801B9014F
:10016800FD012A29310803192A29033084000A12BB
:100178008A11BB220A128A11A9000A128A11BB220B
:100188000A128A11AA003908803AAB002A08803A74
:100198002B02031DD12829083802031C2A2983129F
:1001A8000313ED2802307D06031DE6283108031DE0
:1001B8002A2938083904031D2A290130B8000030DB
:1001C800B9002A2903307D06031D1E2931080319A9
:1001D800F428B801B9010230A9002908FD002A292C
:1001E8003108031D2A29013084000A128A11BB2212
:1001F8000A128A11A9000A128A11BB220A128A114C
:10020800AA002A08803AAB003908803A2B02031D5D
:100218000F293808290203182A2983120313B80161
:10022800B9010430A9002908FD000130A9002908F6
:10023800FC002A2904307D06031D2A290530A9005F
:100248002908FD000130A9002908FC077C080319CA
:1002580066298312031332083304031D43298615C4
:1002680087150A128A11CF220A128A110A128A11D4
:10027800C5220A128A1101308312031363293F0829
:10028800803AA9003308803A2902031D4D29320813
:100298003E02031866290C3083120313A9002908AB
:1002A80086040A128A11F4220A128A110A128A1181
:1002B800FC220A128A118312031387150130B20037
:1002C8000030B3007D0883120313A9002908A00099
:1002D8007C08AA002A08A1003B30AB002B08A2002A
:1002E8003A080A128A1184220A128A117E280430D6
:1002F80083120313A90029088706AE01AF012F084E
:10030800803AFF00A7307F02031D8C2910302E028F
:1003180003187B29013083120313AE070318AF0AB1
:100328000030AF0783290B198B1ED2290130B4077F
:100338000318B50A0030B5073B03031DB42905307F
:10034800F0000030F1003508F3003408F2000A121A
:100358008A1139220A128A11700871040319CB29EB
:100368000430831203133B06031DD1290A30F00021
:100378000030F1003508F3003408F2000A128A113F
:1003880039220A128A1170087104031DD129083014
:10039800F70077088312031387060B1183160313DC
:1003A8000C1CF329831203130C1CF3290830F700E3
:1003B8007708870602307C06031DE8290130B2075A
:1003C8000318B30A0030B30703307C06031DF22973
:1003D8000230B2070318B30A0030B3070C108312B7
:1003E8008C1C172A831603138C1C172A83120313D9
:1003F8003A030319032A03303A06031D092A013078
:10040800B6070318B70A0030B7077D030319102A87
:1004180003307D06031D162A0130B8070318B90AF0
:100428000030B9078C1083120C1F2D2A8316031372
:100438000C1F2D2A831203131E08BD0083160313F5
:100448001E0883120313BC001430BE000030BF0026
:100458000C137B088312FF007A088A00790884004D
:10046800780E8300FE0E7E0E0900F601F31F432A64
:10047800F209F309F20A0319F30AF601F60AF11F61
:100488004A2AF009F109F00A0319F10A70087104FF
:100498000319772AF501F50AF11B5E2A01300310CA
:1004A800F00DF10DFF3E031D532A0130F4007408CE
:1004B800F507502A71087302031D642A7008720236
:1004C800031C6C2A7008F2027108031CF303F30280
:1004D80001300310F10CF00CFF3E031D6D2A0130B2
:1004E800F502031D5E2A760803197F2AF209F3092B
:1004F800F20A0319F30A7308F1007208F000080001
:1005080083120313A40024030319952A0330240635
:100518000319952A20030319952A03302006031D81
:100528009B2A2208840083138001800A080021087E
:100538000319A62A0230A300220884002308831383
:10054800800008002208840083138001F730A3008C
:100558002308870508003F30831203139F05C7301F
:100568009F05831603139F17F0309F05080002307C
:100578008A000408840A8207003432340034323492
:1005880000348312031390151014831603130C14EC
:100598008B170B170800831203131F141F158316DC
:1005A80003130C178B170B170800831603138C14EF
:1005B8008312031312158B170B17080083120313EA
:1005C8001208FC3902389200783092040800831629
:1005D8000313811281110108F839043881000800D9
:1005E8008312031310109011831603130C100800C4
:1005F800831203131211831603138C100800303072
:100608008312031390049010080064340034643497
:020618000034AC
:02400E007AFF37
:00000001FF
